:020000040000FA
:04000000803119280A
:1000060008007E1480310B1F09280A2817282100B2
:10001600911C0E280F2817282000911C132814283D
:1000260017289631442680317E10090080311B281E
:10003600AF30840096308500DD30860000308700C2
:10004600113096315C268031193084008930850064
:100056002030860001308700443096315C2680319E
:10006600A730840088308500A030860001308700E4
:10007600333096315C2680317430840088308500B8
:100086002030860002308700333096315C2680317E
:10009600C5308400003085001830963156268031F0
:1000A600D3308400013085001030963156268031D9
:1000B600A0308400023085002030963156268031EB
:1000C6007E1020008031672802302100B6000430FF
:1000D600B500BA30890B6D28B50B6D28B60B6D28A7
:1000E60000009731542780310B302100B6002630AE
:1000F600B5005D30890B7D28B50B7D28B60B7D28B4
:10010600003201308A31472280310B302100B500A0
:100116006230890B8C28B50B8C2800002100C301A6
:10012600C40121004308203E8600013087000108F3
:100136008A31A222803101302100C3070030C43D3C
:100146004408803AB50080303502031DAC281030D3
:100156004302031CAF28B028942802309731392770
:10016600803171082100C0007008BF004008B60049
:100176003F08B5000630B636B50C890BBE283508E3
:10018600BF003608C0000330973139278031710827
:100196002100C2007008C1004208B6004108B5003F
:1001A6000630B636B50C890BD4283508C10036089A
:1001B600C200003040022D3003193F020318E42824
:1001C600E528E728BF01C001003042022D3003199F
:1001D60041020318EF28F028F228C101C2014008A5
:1001E600A4003F08A300DD30B5003508A5000230A5
:1001F600A6000030A7008531EE2580312100420897
:10020600A4004108A300DD30B5003508A50009307B
:10021600A6000030A7008531EE25803101308A31F5
:10022600472280310B302100B5006230890B192935
:10023600B50B192900002100C301C40121004308A0
:10024600203E86000130870001088A31A2228031D3
:1002560001302100C3070030C43D4408803AB50090
:1002660080303502031D392910304302031C3C2916
:100276003D292129A0308A31472280312100C3013E
:10028600C40121004308DD3E8600870101088A314A
:10029600A222803101302100C3070030C43D44084A
:1002A600803AB50080303502031D5B2910304302C9
:1002B600031C5E295F29442921004008F5003F08F8
:1002C600F4000130F6000030F700973170278031D6
:1002D60021004208F5004108F4000230F600003023
:1002E600F70097317027803129302100B60096300B
:1002F600B5007F30890B7D29B50B7D29B60B7D298D
:1003060001308A31472280310B302100B50062303E
:10031600890B8B29B50B8B2900002100C301C40171
:1003260021004308A03E86000130870001088A317B
:10033600A222803101302100C3070030C43D4408A9
:10034600803AB50080303502031DAB2910304302D8
:10035600031CAE29AF2993298A31FD228031740806
:100366002100CC007308CB007208CA007108C900CE
:100376004908B5004A08B6004B08B7004C08B80053
:100386001030B836B70CB60CB50C890BC429360834
:10039600BC003508BB004A08BE004908BD003B0842
:1003A6000139B5003508B9003D080739B5003508EB
:1003B600BA0039080319E029E129F5293A08B500F8
:1003C6003508F90053308831152080312930210055
:1003D600B6009630B5007F30890BEF29B50BEF29B3
:1003E600B60BEF2921003C08B5003508DB005B0899
:1003F600B5003508F9000030FA00FB0042308C31B8
:10040600C424803121003B08B5003508DB005B08B9
:10041600B5003508F9000130FA000030FB00423023
:100426008C31C424803121003E08B5003508DB003C
:100436005B08B5003508F9000230FA000030FB0011
:1004460042308C31C424803121003D08B500350886
:10045600DB005B08B5003508F9000330FA00003010
:10046600FB0042308C31C424803129302100B60093
:100476009630B5007F30890B3E2AB50B3E2AB60B67
:100486003E2A21003C08B6003B08B500B636B50C3E
:10049600B636B50C35082000BA0021003608200013
:1004A600BB008931A521803120003D082100C8000C
:1004B60020003C082100C70020003B082100C600A0
:1004C60020003A082100C5004808F3004708F2005A
:1004D6004608F1004508F0008B31B92380317108D8
:1004E6002100A4007008A300DD30B5003508A50082
:1004F6000230A6000030A7008531EE2580312100AC
:100506003E08B6003D08B5003608B500B601350808
:10051600A3003608A400DD30B7003708A50009306F
:10052600A6000030A7008531EE258031A0308A3143
:10053600472280312100C301C40121004308DD3E6A
:100546008600870101088A31A2228031013021000C
:10055600C3070030C43D4408803AB50080303502F8
:10056600031DB72A10304302031CBA2ABB2AA02A4D
:1005760029302100B6009630B5007F30890BC12A9C
:10058600B50BC12AB60BC12AB02880311928200024
:1005960027088039A8002808B1002735A8002808B0
:1005A600B800A61FD72AD82AD92A3814380803191A
:1005B600DD2ADE2AEE2A380A031DE22AE32AEB2A7E
:1005C6000030A7000030A6000030A5000030A400CF
:1005D600A617A701F62A0030A7000030A6000030B3
:1005E600A5000030A40023088039A8002808B10619
:1005F6002335A8002808B900A21F022B032B042BC1
:10060600391439080319082B092B192B390A031D2C
:100616000D2B0E2B162B0030A3000030A20000304D
:10062600A1000030A000A217A301212B0030A300D7
:100636000030A2000030A1000030A00023082204F0
:1006460021042004031D282B292B422B0030A70050
:100656000030A6000030A5000030A4008030A604BB
:100666007F30A7043108A8002808A7042708A3009C
:100676002608A2002508A1002408A0007D2C380821
:10068600031D462B472B502B0030A3000030A20041
:100696000030A1000030A0007D2C3808A800A90178
:1006A6002908AB0039082802AA00031CAB032A0854
:1006B6007F3EB20000302B3DB3002708B00026086D
:1006C600AF002508AE002408AD000030A7000030BA
:1006D600A6000030A5000030A4000030B7000030AE
:1006E600B6000030B5000030B400B901B82B3908A7
:1006F60003197E2B7F2B992B0130AD35AE0DAF0D37
:10070600B00D890B802B0130A435A50DA60DA70DC4
:10071600890B872BB71F902B912B922B241401301A
:10072600B435B50DB60DB70D890B932B23083002E2
:10073600031DA72B22082F02031DA72B21082E021B
:10074600031DA72B20082D02031CAA2BAB2BB42BB1
:1007560037172008AD022108AE3B2208AF3B23081D
:10076600B03B0130A8002808B9071A303902031C2B
:10077600BD2BBE2B7A2B30082F042E042D04031913
:10078600C52BC62BDF2B3414DF2B0130A435A50D6A
:10079600A60DA70D890BC92BB71FD22BD32BD42B94
:1007A60024140130B435B50DB60DB70D890BD52B14
:1007B600FF30B207FF30B33DA61FE22BE32BC82B59
:1007C600B901B71FE72BE82B042CFF303405A8002E
:1007D600FF303505A900FF303605AA007F30370502
:1007E600AB002B082A04290428040319FB2BFC2B35
:1007F600FF2BB901B90A042C241C022C032C042C4F
:10080600FC2B39080319082C092C312C0130A407BC
:100816000030A53D0030A63D0030A73D271C142C16
:10082600152C312C2408A8002508A9002608AA00A2
:100836002708AB000130AC00AB37AA0CA90CA80CFA
:10084600AC0B1F2C2B08A7002A08A6002908A50018
:100856002808A4000130B2070030B33D3308803ABF
:10086600A80080302802031D3A2CFF303202031CF8
:100876003D2C3E2C4B2CFF302000B2000030B30044
:100886000030A7000030A6000030A5000030A4000C
:1008960020003308803AA80080302802031D552C1A
:1008A600013032020318582C592C652C2000B20155
:1008B600B3010030A7000030A6000030A5000030CC
:1008C600A400B10120003208A8002808B800381C8E
:1008D6006D2C6E2C702CA617742C7F30A80028085F
:1008E600A6053836A8002808A7003108A800280859
:1008F600A704392B08002000BF003008C4003108C7
:10090600C5003208C6003308C7003408C8003508D9
:10091600C9003608CA003708CB00443086000030CC
:100926008700473FB800B81B992C9B2C01309C2CA4
:1009360000302000B900BA013908C2003A08C300E5
:10094600420843040319A82CA92CC72CC409C509BD
:10095600C609C709C809C909CA09CB09C40A031DBA
:10096600C72CC50A031DC72CC60A031DC72CC70AF8
:10097600031DC72CC80A031DC72CC90A031DC72C93
:10098600CA0A031DC72CCB0A2100D61BCB2CCC2CA4
:10099600D02CFD30D705FF30D8055608803A200008
:1009A600B80080303802031DDB2C013021005502CF
:1009B6000318DE2CDF2CE52C01302000BD000030B2
:1009C600BE00ED2C210056082000BE00210055086F
:1009D6002000BD00210054082000C100210053085A
:1009E6002000C00042084304031DFA2CFB2C002DF6
:1009F6002100571DFF2C002D052DFF302000C007BC
:100A0600FF30C13D1F302000CC000030CD00250056
:100A1600BF01762DFF302000CC07FF30CD3D0A30D8
:100A2600A000A101A201A301A401A501A601A7019D
:100A36004408A8004508A9004608AA004708AB00D4
:100A46004808AC004908AD004A08AE004B08AF00A4
:100A56008E311526843120002108F4002008F30089
:100A66009731052784317308303E2000B8004C08C2
:100A7600A03E86000230870038088100FF30BD079F
:100A8600FF30BE3DFF30C007FF30C13D0A30A00039
:100A9600A101A201A301A401A501A601A701440881
:100AA600A8004508A9004608AA004708AB00480860
:100AB600AC004908AD004A08AE004B08AF008E31C5
:100AC600FF26843120002008C4002108C500220822
:100AD600C6002308C7002408C8002508C900260840
:100AE600CA002708CB0020004D08803AB8008030A5
:100AF6003802031D802D01304C02031C832D842DEA
:100B0600B12D20004408450446044704480449041E
:100B16004A044B04031D902D912D0D2D3E08803A5D
:100B2600B80080303802031D9A2D01303D020318AB
:100B36009D2D9E2D0D2D20004108803AB800803055
:100B46003802031DA82D01304002031CAB2DAC2D2D
:100B5600B12D2100D718B02DB12D0D2D2000420842
:100B66004304031DB72DB82DBD2D2100571DBC2DE7
:100B7600BD2DDA2DFF302000CC07FF30CD3D4208D9
:100B86004304031DC72DC82DCD2D2B30BB000030CF
:100B9600BC00D12D2D30BB000030BC003B08B80096
:100BA6004C08A03E860002308700380881002000ED
:100BB6004C08A03EB8003808A4004108A60040082A
:100BC600A5003F088931EE21843120002508B100B7
:100BD6002408B00008002D302000E6009830E70019
:100BE600210024082000E900210023082000E80055
:100BF6008831022085312100B301B401A41F042EDF
:100C0600052E182E0130B3000030B4002D30A80098
:100C160026082507A90029088600870128088100DB
:100C2600A309A409A30A0319A40AE830F0000330B3
:100C3600F1002408F3002308F2008B315A23853192
:100C460071082100AE007008AD002E08F1002D08D5
:100C5600F0001830F200FC30F30097318C27853114
:100C6600210023087007A3002408713DA400643006
:100C7600F0000030F1002408F3002308F2008B3165
:100C86005A23853171082100B0007008AF00300882
:100C9600F1002F08F0009C30F200FF30F30097318E
:100CA6008C278531210023087007A3002408713D95
:100CB600A4000A30F0000030F1002408F3002308F5
:100CC600F2008B315A23853171082100B200700879
:100CD600B1003208F1003108F000F630F200FF30C2
:100CE600F30097318C278531210023087007AB006C
:100CF6002408713DAC0018302000E6009830E7006B
:100D060088310220853100302000E6009830E70067
:100D160021002E082000E90021002D082000E8000F
:100D2600210030082000EB0021002F082000EA00F7
:100D3600210032082000ED00210031082000EC00DF
:100D460021002C082000EF0021002B082000EE00D7
:100D560088310220853121002D08303EA800260862
:100D66002507A90033082907AA002A088600870153
:100D7600280881002F08303EA80026082507A9006C
:100D860033082907AA002A0A860087012808810055
:100D96003108303EA80026082507A9003308290790
:100DA600AA002A08023E86008701280881002B082F
:100DB600303EA80026082507A90033082907AA00FF
:100DC6002A08033E86008701280881002D082E0484
:100DD600031DEE2EEF2E232F2030A8002608250710
:100DE600A90033082907AA002A08860087012808CF
:100DF60081002F083004031D012F022F232F2030DE
:100E0600A80026082507A90033082907AA002A0AE8
:100E1600860087012808810031083204031D142F3B
:100E2600152F232F2030A80026082507A9003308F0
:100E36002907AA002A08023E8600870128088100A1
:100E460008002000DD004E0886008701403FD000E4
:100E5600413FD10050088400510885001200253A10
:100E6600031D362F372FDB2F4E08860087010130F2
:100E7600810741310318810A2100D301D401D7012A
:100E8600D801FF30D500FF30D60020004E0886007E
:100E96008701403FD000413FD100500884005108EF
:100EA60085001200643A0319592F5A2F6B2F4E08EA
:100EB60086008701403FD000413FD10050088400A2
:100EC600510885001200693A031D6A2F6B2FA62F61
:100ED6004E08860087010130810741310318810AD7
:100EE6004F088600870101088400850102308107CA
:100EF600003FD000013FD1005008D5005108D60070
:100F0600890D893B8909D700D800D900DA00DB00B2
:100F1600DC005508B0005608B1005708B200580862
:100F2600B3005908B4005A08B5005B08B6005C085F
:100F3600B7005D0884317E24873120003108CF0058
:100F46003008CE00FE2F4E0886008701403FD000B5
:100F5600413FD10050088400510885001200253A0F
:100F6600031DB62FB72FD02F4E08860087010130FC
:100F7600810741310318810A2530F0000030F10065
:100F86005D08D0005008F2008831DA208731013040
:100F96002000CE000030CF00FE2F4E0886008701CD
:100FA6000130810741310318810ACE01CF01FE2F9E
:100FB6004E0886008701403FD000413FD1005008CF
:100FC6008400510885000008D200D3015208F000C1
:100FD6005308F1005D08D4005408F2008831DA2085
:100FE600873120004E088600870101308107413194
:0A0FF6000318810ACA2F0800080042
:101004006830FD007D082100A20020006708DF0091
:101014006608DE00A230FD007D08E0000030883163
:10102400432088310800FB0001308A31472288318F
:1010340079083038FA007B080B3E860001308700BF
:101044007A088100FC01FD017C087B07FA007A081C
:1010540086000130870001088A31A22288310130DC
:10106400FC070030FD3D7D08803AFA0080307A02AA
:10107400031D3E2810307C02031C412842282628E8
:1010840008002000E3005F08E5005E08E40021009A
:10109400D101D20161286430E1006108CE0060080A
:1010A400E2006208CF0063088731242788312000DA
:1010B4004E082100D10720004F082100D23D200016
:1010C40064088400650885001200031D6A286B28E3
:1010D4004D28210052082000DF0021005108200083
:1010E400DE0008002034203447347234653465341B
:1010F4006E34203442347534743474346F346E3442
:1011040020342034003420342034203457346134E3
:1011140072346D3469346E34673420342034553479
:1011240070342034203400342034203445346E3478
:10113400673469346E3465346534723469346E34BA
:1011440067342034203420340034203420345434A0
:1011540065346D34703420342034433420342034E6
:1011640020342034203420342034003420345034CB
:101174006F3477346534723469346E3467342034B0
:10118400553470342E342E342E342034003420342C
:101194002034203420346A346F3468346E34733429
:1011A4007A34793420342034203420342034003408
:1011B40072080319DE28DF28E4287208031DE328D7
:1011C400E428E92870088731FF2788311829720834
:1011D400033E86008701160001040319F228F32850
:1011E40010297208033E86008701403FF300413F07
:1011F400F400720A86008701403FF500413FF60083
:101204007608803AF7007408803A7702031D0C29A7
:101214007308750203180F2910291829720A860009
:1012240087010130810741310318810A0800203405
:10123400203450346F347434313420342034203426
:1012440050346F3474343234203420342034003435
:101254002034203420342034203468346F347734FC
:10126400643479342034203420342034203420343D
:1012740000342034203420342034203420342034EA
:1012840020342034203420342034203420342034BA
:10129400203400342034543443342034463461340C
:1012A40075346C34743420343D3420342034203488
:1012B40020342034003422008C018D018E0137301B
:1012C40021008C0010308D003C308E000C30230047
:1012D4008E008D0117308C00F03024008D003F30DB
:1012E4008C00FC308E002100951325008C018D01AB
:1012F4008E0100308B1B0130F0008B1355303C0005
:101304008F00AA308F000F100E303D00A000053072
:101314003C0098000C30A10010303D009E001130BC
:101324009D000F30A1000E303C00A00011309B0046
:1013340055308F00AA308F000F14700C031C8B13D0
:1013440003188B170800FF3020003A05C4003F3013
:101354003B05C500C51AAF29B029B5294508C30006
:101364004408C200BB294408003EC200C030453DC9
:10137400C3004030A3008030A2000030A100003040
:10138400A0004208F0004308F100890D893B890957
:10139400F200F30001308D31692589317308200092
:1013A400A7007208A6007108A5007008A400823185
:1013B400CA22893120002308C1002208C000210864
:1013C400BF002008BE004108BD004008BC003F0823
:1013D400BB003E08BA0008002000AB002100571CE7
:1013E400F429F529FE2920002B08FC007C08F800CC
:1013F40024089731AB2789312000A61B022A032A2F
:10140400082A2608AA002508A9000A2AA901AA016F
:10141400A701A8011E2A2030F0000030F1002000AE
:101424002B08FC007C08F2008831DA208931013075
:101434002000A7070030A83D2808803AFC002A08AD
:10144400803A7C02031D282A29082702031C2B2A20
:101454002C2A0D2A21005718302A312A3A2A200032
:101464002B08FC007C08F80024089731AB2789314D
:101474002000240897311F2789312000290870078C
:10148400A4002A08713DA5000800F50022008D1370
:10149400F8309631A1268A31F801F601F701750872
:1014A4000139F2007208F4007536F2007208F50092
:1014B4007835F2007208F8007403031D622A632A67
:1014C400682A78080138F2007208F80003307606BA
:1014D4007704031D6E2A6F2A7F2A7808F2000330EE
:1014E400F235FF3E031D722A7235F3007308F800CB
:1014F40078089631A1268A31F8010130F6070030C8
:10150400F73D7708803AF20080307202031D8C2A7E
:1015140008307602031C8F2A902A512A7808F20098
:101524000330F235FF3E031D932A7235F30073082E
:10153400F80078089631A1268A3122008D17080018
:10154400F50022008D13FA309631A1268A31F80174
:10155400F601F70175080139F2007208F4007536D6
:10156400F2007208F5007835F2007208F80074038E
:10157400031DBD2ABE2AC32A78080138F200720866
:10158400F800033076067704031DC92ACA2ADA2A2A
:101594007808F2000330F235FF3E031DCD2A723580
:1015A400F3007308F80078089631A1268A31F8010F
:1015B4000130F6070030F73D7708803AF2008030BA
:1015C4007202031DE72A08307602031CEA2AEB2A7A
:1015D400AC2A7808F2000330F235FF3E031DEE2AF0
:1015E4007235F3007308F80078089631A1268A3121
:1015F40022008D17080000302000A4000030A30052
:101604000030A2000030A10022000E132000A5012A
:10161400A601003096317D268A31F5007508200038
:10162400A00022000E1320002008F500F601F701A7
:10163400F8012108F9002208FA002308FB00240815
:10164400FC000830F935FA0DFB0DFC0D890B242B39
:101654007908F5047A08F6047B08F7047C08F80492
:101664007808A4007708A3007608A2007508A100F2
:1016740022000E1301302000A5070030A63D2608E5
:10168400803AF50080307502031D4A2B0430250290
:10169400031C4D2B4E2B0B2B22000E17200024086D
:1016A400F4002308F3002208F2002108F1000800E6
:1016B400F601F11F5E2B5F2B662BF009F109F00A8E
:1016C4000319F10AF601F60AF31F692B6A2B732B2F
:1016D400F209F309F20A0319F30A0130F400740859
:1016E400F606F701F8017008710403197A2B7B2BB5
:1016F400AA2BF501F50A872B0130F035F10D890B82
:101704007F2B0130F4007408F507F11F8A2B8B2B13
:101714007E2B0130F735F80D890B8C2B7108730281
:10172400031D962B70087202031C992B9A2B9F2B76
:101734007008F2027108F33B77140130F136F00CB3
:10174400890BA02B0130F502031DA92BAA2B8B2B8F
:1017540076080319AE2BAF2BB42BF709F809F70A57
:101764000319F80A7808F1007708F000080003105C
:10177400720D730DF4007408FA007A08031DC32B6C
:10178400C42BCD2B0030F3000030F2000030F10008
:101794000030F0002C2C7008F4007108F500720879
:1017A400F6007308F7001F30F736F60CF50CF40C4E
:1017B400890BD62B7408F8007808F900F217FF306B
:1017C400F005FF30F105FF30F2050030F3059630E7
:1017D400FA02FA1FEE2BEF2B072C7A08803A973E79
:1017E4000318F52BF62BF72BC42B0130F336F20C30
:1017F400F10CF00C890BF82B0130F4007408FA0793
:10180400031D052C062CF72B1C2C20307A02031CFC
:101814000C2C0D2C172CC42B0130F035F10DF20DCE
:10182400F30D890B0F2C0130FA027A08031D1B2CCF
:101834001C2C0E2C79080319202C212C2C2CF0099B
:10184400F109F209F309F00A0319F10A0319F20A7A
:101854000319F30A080022008E170330FA00083037
:10186400F9007730890B342CF90B342CFA0B342C17
:1018740000002A308A3147228C3171308A31472264
:101884008C3100308A31A2228C3128308A314722AF
:101894008C3108308A3147228C312A308A314722F0
:1018A4008C3179308A3147228C31D5308A314722C4
:1018B4008C3170308A3147228C3178308A3147221A
:1018C4008C3109308A3147228C3106308A314722E3
:1018D4008C3172308A3147228C3100308A31A22215
:1018E4008C312A308A3147228C3179308A3147222F
:1018F4008C31DA308A3147228C3100308A314722E8
:101904008C31DC308A3147228C3100308A314722D5
:101914008C3181308A3147228C317F308A314722A1
:101924008C31D9308A3147228C31F1308A314722C7
:101934008C31DB308A3147228C3140308A31472266
:101944008C3178308A3147228C3128308A314722D1
:101954008C3101308A3147228C3180308A314722E0
:101964008C310C308A3147228C310330FA00083034
:10197400F9007730890BBC2CF90BBC2CFA0BBC2C6E
:10198400000008002000A20079080F39FC007C0840
:10199400A0007908FC000430FC36890BCE2C7C08AE
:1019A4000F39FD007D08A1000A3020020318DB2C4A
:1019B400DC2CE92C20083038FC007A352207FD00A5
:1019C4007D0A8600013087007C088100F72C2008FE
:1019D400FF3E07394038FC007A352207FD007D0AB6
:1019E4008600013087007C0881000A302102031838
:1019F400FC2CFD2C0A2D21083038FC007A352207F6
:101A0400FD007D088600013087007C088100182DC8
:101A14002108FF3E07394038FC007A352207FD00D3
:101A24007D088600013087007C08810001308A31FE
:101A340047228C310B30FC006230890B1F2DFC0BCC
:101A44001F2D00322000A301A40120002308220737
:101A5400FC007C0886000130870001088A31A2223C
:101A64008C3101302000A3070030A43D2408803AC3
:101A7400FC0080307C02031D412D10302302031C26
:101A8400442D452D272DA0308A3147228C3120004A
:101A9400A301A40120002308313E86000130870001
:101AA40001088A31A2228C3101302000A3070030C2
:101AB400A43D2408803AFC0080307C02031D642D80
:101AC40010302302031C672D682D4C2D0800F800EC
:101AD400780803196E2D6F2D832DF31F722D732D2E
:101AE400832D7009FA007109FB007209FC00730967
:101AF400FD00FA0A0319FB0A0319FC0A0319FD0A7B
:101B04008B2D7308FD007208FC007108FB0070083F
:101B1400FA007308720471047004031D922D932D4E
:101B24009C2D0030F3000030F2000030F100003052
:101B3400F000142E9630F4007408F900AC2D013036
:101B4400F4007408F9070130FD36FC0CFB0CFA0CA8
:101B5400890BA62DFE307D05031DB12DB22DA12DBF
:101B6400C62D0130F4007408F9070130FA0700307B
:101B7400FB3D0030FC3D0030FD3D0130FD36FC0CEA
:101B8400FB0CFA0C890BC02DFF307D05031DCB2DFA
:101B9400CC2DB32DD62D0130F9020130FA35FB0DD1
:101BA400FC0DFD0D890BD02DFC1BD92DDA2DE02D5C
:101BB400023079020318DF2DE02DCD2D7918E32DA5
:101BC400E42DEC2DFF30FA05FF30FB057F30FC05DA
:101BD400FF30FD050310F90C7908F400F501F60156
:101BE400F7011830F435F50DF60DF70D890BF42DCA
:101BF4007408FA047508FB047608FC047708FD04ED
:101C040078080319062E072E0C2EF31F0A2E0B2E0E
:101C14000C2EFD177D08F3007C08F2007B08F10010
:101C24007A08F0000800F2012830860000308700AE
:101C3400473FF000F01F1F2E202E412E2000A80940
:101C4400A909AA09AB09AC09AD09AE09AF09A80AEB
:101C5400031D3F2EA90A031D3F2EAA0A031D3F2E72
:101C6400AB0A031D3F2EAC0A031D3F2EAD0A031D14
:101C74003F2EAE0A031D3F2EAF0AF201F20A2030B6
:101C8400860000308700473FF000F01F4A2E4B2E9D
:101C94006A2E2000A009A109A209A309A409A50983
:101CA400A609A709A00A031D6A2EA10A031D6A2E0C
:101CB400A20A031D6A2EA30A031D6A2EA40A031D89
:101CC4006A2EA50A031D6A2EA60A031D6A2EA70AF8
:101CD40020002008210422042304240425042604CB
:101CE40027040319762E772ECA2EF101F10A862EC7
:101CF400A035A10DA20DA30DA40DA50DA60DA70D34
:101D04000130F0007008F107A71F892E8A2E7A2E61
:101D140027082F02031DA82E26082E02031DA82E15
:101D240025082D02031DA82E24082C02031DA82E0D
:101D340023082B02031DA82E22082A02031DA82E05
:101D440021082902031DA82E20082802031CAB2EFB
:101D5400AC2EBC2E2008A8022108A93B2208AA3BCD
:101D64002308AB3B2408AC3B2508AD3B2608AE3B1F
:101D74002708AF3BA736A60CA50CA40CA30CA20CF9
:101D8400A10CA00C0130F102031DC92ECA2E8A2E0B
:101D940072080319CE2ECF2EED2EA809A909AA097F
:101DA400AB09AC09AD09AE09AF09A80A031DED2EB4
:101DB400A90A031DED2EAA0A031DED2EAB0A031D6D
:101DC400ED2EAC0A031DED2EAD0A031DED2EAE0A59
:101DD400031DED2EAF0A20002808A0002908A10049
:101DE4002A08A2002B08A3002C08A4002D08A50093
:101DF4002E08A6002F08A7000800F2012030860054
:101E040000308700473FF000F01F092F0A2F2B2FC7
:101E14002000A009A109A209A309A409A509A609EA
:101E2400A709A00A031D292FA10A031D292FA20A0D
:101E3400031D292FA30A031D292FA40A031D292FDB
:101E4400A50A031D292FA60A031D292FA70AF2019B
:101E5400F20A2830860000308700473FF000F01F68
:101E6400342F352F582F2000A809A909AA09AB0936
:101E7400AC09AD09AE09AF09A80A031D542FA90A7C
:101E8400031D542FAA0A031D542FAB0A031D542FFC
:101E9400AC0A031D542FAD0A031D542FAE0A031DB3
:101EA400542FAF0A0130F0007008F2067330860038
:101EB400003087000830F00000301E00F00B5F2F68
:101EC40020002008210422042304240425042604D9
:101ED400270403196E2F6F2FCB2FF101F10A7E2FE8
:101EE400A035A10DA20DA30DA40DA50DA60DA70D42
:101EF4000130F0007008F107A71F812F822F722F85
:101F0400F335F40DF50DF60DF70DF80DF90DFA0D89
:101F140027082F02031DA82F26082E02031DA82F11
:101F240025082D02031DA82F24082C02031DA82F09
:101F340023082B02031DA82F22082A02031DA82F01
:101F440021082902031DA82F20082802031CAB2FF7
:101F5400AC2FBD2F2008A8022108A93B2208AA3BC8
:101F64002308AB3B2408AC3B2508AD3B2608AE3B1D
:101F74002708AF3B7314A736A60CA50CA40CA30C1E
:101F8400A20CA10CA00C0130F102031DCA2FCB2F0F
:101F9400822F72080319CF2FD02FEE2FF309F409E3
:101FA400F509F609F709F809F909FA09F30A031D0D
:101FB400EE2FF40A031DEE2FF50A031DEE2FF60A89
:101FC400031DEE2FF70A031DEE2FF80A031DEE2F53
:101FD400F90A031DEE2FFA0A73082000A000740802
:101FE400A1007508A2007608A3007708A400780869
:0C1FF400A5007908A6007A08A7000800E4
:102C720020009C17080028009517080078302100D2
:102C8200990098010800200091109631872696310C
:102C92000800240094013230950092010800710866
:102CA2002100DA007008D9000800640080010131B7
:102CB200890B572E0034FE0012001E00FE0B5D2E03
:102CC2000034013021009D0060309E009F019B0175
:102CD2009C01080080302C00990098019701CF30A8
:102CE20025009E05080080302C009C009B019A0163
:102CF2003F3025009E050800F00070082400910076
:102D0200141C842E852E812E1108080021005908DA
:102D12005A0403198D2E8E2E932E5A088A005908B2
:102D22000A009631080020009C019E019D019F012E
:102D3200DB309B009A0190109631392696310800BB
:102D4200F100710824009100141CA82EA92EA52EB2
:102D52001108F00070082100DC0008002034203443
:102D62003034303430343034203420342034303471
:102D7200303430343034203420342034003471087C
:102D8200F3007008F200F336F20CF336F20C72081C
:102D92002C00980070080339F2000530F235FF3E2E
:102DA200031DCF2E7235970008007108F3007008DA
:102DB200F200F336F20CF336F20C72082C009B0090
:102DC20070080339F2000530F235FF3E031DE52E8F
:102DD20072359A0008007930280095000330970078
:102DE2009601980117309400930120009110210060
:102DF20091140330F0000030F100963150269631E4
:102E020096313C26963108007408803AF5008030ED
:102E12007502031D0E2F013073020318112F122F9A
:102E22001E2F7309F5007409F600F50A0319F60A54
:102E32007508F3007608F4001E2F0800F4007408E9
:102E4200F2007208F300292F0130F2007208F40731
:102E520074088600023087000108031D312F322FCB
:102E6200252F73087402F000F101F01BF103080032
:102E7200F3007308F200F20DF20D21001D08720634
:102E8200833972069D001D140630890B462F0032CD
:102E920021009D149D184E2F4F2F4B2F1C08F1001F
:102EA2001B08F000080089315D21973196313F26D9
:102EB200973196314A2697319731D42797319631F7
:102EC200622697319631742697319631EC269731E6
:102ED20096316B2697319631942697310800760306
:102EE2007704031D752F762F7D2F7508F100740866
:102EF200F0009631C0269731023076067704031D22
:102F0200832F842F8B2F7508F1007408F0009631FF
:102F1200D62697310800F401F501701C912F922FEB
:102F2200962F7208F4077308F53D0130F235F30D60
:102F3200890B972F0130F136F00C890B9C2F70080A
:102F42007104031DA52FA62F8E2F7508F10074089A
:102F5200F00008002000A300A101A201C32F200855
:102F6200F900FA017908F0007A08F1007808FB000C
:102F72007B08F2008831DA20973101302000A10766
:102F82000030A23D21082307F900790886000230AB
:102F920087000108FA007A08A0002008031DD22F3A
:102FA200D32FB02F08008C312D24973101308A3174
:102FB200472297310B30FB006230890BDE2FFB0B6F
:102FC200DE2F0032FC01FD017C08B13E860001309B
:102FD200870001088A31A22297310130FC070030B4
:102FE200FD3D7D08803AFB0080307B02031DFB2FF4
:102FF20010307C02031CFE2FFF2FE52F0800203427
:10300200203425346434203420342034253464348C
:1030120020342034203425346434203420342034C5
:10302200253464342034203420340A3400346434A7
:103032006934673431342034643469346734323467
:10304200203464346934673433342034643469346A
:10305200673434340A3400346E3475346D343D349C
:0A3062002034253464340A340034AD
:020000040001F9
:06000E00FC3FFF1E9F3FB6
:00000001FF
