:020000040000FA
:1000000080311928080008007E1480310B1F092850
:100010000A2817282100911C0E280F2817282000D5
:10002000911C1328142817289631982680317E10A9
:10003000090080311B28FD30840096308500DB30BC
:10004000860000308700113088310120803128304F
:1000500084008930850020308600013087004430DC
:10006000883101208031B630840088308500A0308E
:1000700086000130870033308831012080318330A1
:1000800084008830850020308600023087003330BD
:10009000883101208031C330840000308500183061
:1000A0009631AA268031D33084000130850010308B
:1000B0009631AA268031A03084000230850020309D
:1000C0009631AA2680317E102000803167280230C8
:1000D0002100B6000430B500BA30890B6D28B50B8D
:1000E0006D28B60B6D28000097319F2780310B30AB
:1000F0002100B6002630B5005D30890B7D28B50B98
:100100007D28B60B7D28003201308A31562280319D
:100110000B302100B5006230890B8C28B50B8C2880
:1001200000002100C101C20121004108203E8600DB
:100130000130870001088A31B1228031013021006D
:10014000C1070030C23D4208803AB5008030350218
:10015000031DAC2810304102031CAF28B02894289E
:10016000023097318427803171082100BE00700869
:10017000BD003E08B6003D08B5000630B636B50CE9
:10018000890BBE283508BD003608BE000330973104
:100190008427803171082100C0007008BF0040082A
:1001A000B6003F08B5000630B636B50C890BD4282A
:1001B0003508BF003608C00000303E022D3003195C
:1001C0003D020318E428E528E728BD01BE01003000
:1001D00040022D3003193F020318EF28F028F228BF
:1001E000BF01C0013E08A4003D08A300DB30B500FC
:1001F0003508A5000230A6000030A7008531CA25C9
:10020000803121004008A4003F08A300DB30B50086
:100210003508A5000930A6000030A7008531CA25A1
:10022000803101308A31562280310B302100B500F7
:100230006230890B1929B50B192900002100C10171
:10024000C20121004108203E8600013087000108DC
:100250008A31B122803101302100C1070030C23D16
:100260004208803AB50080303502031D392910302C
:100270004102031C3C293D292129A0308A31562204
:1002800080312100C101C20121004108DB3E86000E
:10029000870101088A31B122803101302100C10774
:1002A0000030C23D4208803AB50080303502031D5F
:1002B0005B2910304102031C5E295F29442921007B
:1002C0003E08F5003D08F4000130F6000030F7006C
:1002D0009731BB27803121004008F5003F08F4002A
:1002E0000230F6000030F7009731BB27803129300B
:1002F0002100B6009630B5007F30890B7D29B50B03
:100300007D29B60B7D2901308A31562280310B3090
:100310002100B5006230890B8B29B50B8B290000B9
:100320002100C101C20121004108A03E8600013028
:10033000870001088A31B122803101302100C107D4
:100340000030C23D4208803AB50080303502031DBE
:10035000AB2910304102031CAE29AF2993298B3100
:100360000C23803174082100CA007308C900720888
:10037000C8007108C7004708B5004808B60049081A
:10038000B7004A08B8001030B836B70CB60CB50C38
:10039000890BC4293608BA003508B9004808BC00E2
:1003A0004708BB003A08B5003508D9005908B50020
:1003B0003508F9000030FA00FB0053308C31D324AB
:1003C000803121003908B5003508D9005908B50039
:1003D0003508F9000130FA000030FB0053308C3151
:1003E000D324803121003C08B5003508D9005908D4
:1003F000B5003508F9000230FA000030FB00533038
:100400008C31D324803121003B08B5003508D90058
:100410005908B5003508F9000330FA000030FB0038
:1004200053308C31D324803129302100B6009630EE
:10043000B5007F30890B1A2AB50B1A2AB60B1A2A77
:1004400021003A08B6003908B500B636B50CB63604
:10045000B50C35082000BA00210036082000BB008A
:100460008931B421803120003D082100C6002000E0
:100470003C082100C50020003B082100C4002000EA
:100480003A082100C3004608F3004508F20044087A
:10049000F1004308F0008B31C8238031710821003E
:1004A000A4007008A300DB30B5003508A5000230B9
:1004B000A6000030A7008531CA25803121003C0804
:1004C000B6003B08B5003608B500B6013508A300F4
:1004D0003608A400DB30B7003708A5000930A600B5
:1004E0000030A7008531CA258031A0308A315622DC
:1004F00080312100C101C20121004108DB3E86009C
:10050000870101088A31B122803101302100C10701
:100510000030C23D4208803AB50080303502031DEC
:10052000932A10304102031C962A972A7C2A2930EC
:100530002100B6009630B5007F30890B9D2AB50B9F
:100540009D2AB60B9D2AB028803119282000270843
:100550008039A8002808B1002735A8002808B8006D
:10056000A61FB32AB42AB52A381438080319B92AA1
:10057000BA2ACA2A380A031DBE2ABF2AC72A00304F
:10058000A7000030A6000030A5000030A400A61788
:10059000A701D22A0030A7000030A6000030A50035
:1005A0000030A40023088039A8002808B1062335AC
:1005B000A8002808B900A21FDE2ADF2AE02A391481
:1005C00039080319E42AE52AF52A390A031DE92A1C
:1005D000EA2AF22A0030A3000030A2000030A10075
:1005E0000030A000A217A301FD2A0030A3000030B4
:1005F000A2000030A1000030A00023082204210442
:100600002004031D042B052B1E2B0030A7000030F7
:10061000A6000030A5000030A4008030A6047F3082
:10062000A7043108A8002808A7042708A300260863
:10063000A2002508A1002408A000592C3808031D99
:10064000222B232B2C2B0030A3000030A2000030E3
:10065000A1000030A000592C3808A800A9012908E1
:10066000AB0039082802AA00031CAB032A087F3E0E
:10067000B20000302B3DB3002708B0002608AF00C1
:100680002508AE002408AD000030A7000030A60009
:100690000030A5000030A4000030B7000030B600E4
:1006A0000030B5000030B400B901942B39080319AB
:1006B0005A2B5B2B752B0130AD35AE0DAF0DB00D48
:1006C000890B5C2B0130A435A50DA60DA70D890B58
:1006D000632BB71F6C2B6D2B6E2B24140130B4359C
:1006E000B50DB60DB70D890B6F2B23083002031D16
:1006F000832B22082F02031D832B21082E02031DAA
:10070000832B20082D02031C862B872B902B371759
:100710002008AD022108AE3B2208AF3B2308B03BC6
:100720000130A8002808B9071A303902031C992B98
:100730009A2B562B30082F042E042D040319A12BBD
:10074000A22BBB2B3414BB2B0130A435A50DA60D59
:10075000A70D890BA52BB71FAE2BAF2BB02B2414E5
:100760000130B435B50DB60DB70D890BB12BFF3087
:10077000B207FF30B33DA61FBE2BBF2BA42BB90180
:10078000B71FC32BC42BE02BFF303405A800FF306C
:100790003505A900FF303605AA007F303705AB00CC
:1007A0002B082A04290428040319D72BD82BDB2B68
:1007B000B901B90AE02B241CDE2BDF2BE02BD82B50
:1007C00039080319E42BE52B0D2C0130A407003068
:1007D000A53D0030A63D0030A73D271CF02BF12B96
:1007E0000D2C2408A8002508A9002608AA0027081F
:1007F000AB000130AC00AB37AA0CA90CA80CAC0BB9
:10080000FB2B2B08A7002A08A6002908A50028080A
:10081000A4000130B2070030B33D3308803AA8008D
:1008200080302802031D162CFF303202031C192CC5
:100830001A2C272CFF302000B2000030B30000300B
:10084000A7000030A6000030A5000030A400200062
:100850003308803AA80080302802031D312C013073
:1008600032020318342C352C412C2000B201B30184
:100870000030A7000030A6000030A5000030A40022
:10088000B10120003208A8002808B800381C492C03
:100890004A2C4C2CA617502C7F30A8002808A605FF
:1008A0003836A8002808A7003108A8002808A7049F
:1008B000152B08002000BF003008C4003108C50017
:1008C0003208C6003308C7003408C8003508C9001C
:1008D0003608CA003708CB00443086000030870055
:1008E000473FB800B81B752C772C0130782C0030AE
:1008F0002000B900BA013908C2003A08C300420812
:1009000043040319842C852CA32CC409C509C609EA
:10091000C709C809C909CA09CB09C40A031DA32C00
:10092000C50A031DA32CC60A031DA32CC70A031D59
:10093000A32CC80A031DA32CC90A031DA32CCA0A91
:10094000031DA32CCB0A2100D41BA72CA82CAC2C54
:10095000FD30D505FF30D6055408803A2000B80098
:1009600080303802031DB72C0130210053020318D8
:10097000BA2CBB2CC12C01302000BD000030BE00C1
:10098000C92C210054082000BE002100530820007B
:10099000BD00210052082000C100210051082000A4
:1009A000C00042084304031DD62CD72CDC2C2100A8
:1009B000551DDB2CDC2CE12CFF302000C007FF3064
:1009C000C13D1F302000CC000030CD002500BF010C
:1009D000522DFF302000CC07FF30CD3D0A30A00063
:1009E000A101A201A301A401A501A601A701440838
:1009F000A8004508A9004608AA004708AB00480817
:100A0000AC004908AD004A08AE004B08AF00873182
:100A10000027843120002108F4002008F3009731DA
:100A2000502784317308303E2000B8004C08A03EA7
:100A300086000230870038088100FF30BD07FF3094
:100A4000BE3DFF30C007FF30C13D0A30A000A1010C
:100A5000A201A301A401A501A601A7014408A800C1
:100A60004508A9004608AA004708AB004808AC00A2
:100A70004908AD004A08AE004B08AF008E31FF2692
:100A8000843120002008C4002108C5002208C600C7
:100A90002308C7002408C8002508C9002608CA0082
:100AA0002708CB0020004D08803AB800803038027B
:100AB000031D5C2D01304C02031C5F2D602D8D2D1C
:100AC00020004408450446044704480449044A04F5
:100AD0004B04031D6C2D6D2DE92C3E08803AB800A7
:100AE00080303802031D762D01303D020318792D28
:100AF0007A2DE92C20004108803AB8008030380275
:100B0000031D842D01304002031C872D882D8D2D5F
:100B10002100D5188C2D8D2DE92C2000420843048E
:100B2000031D932D942D992D2100551D982D992D40
:100B3000B62DFF302000CC07FF30CD3D42084304E6
:100B4000031DA32DA42DA92D2B30BB000030BC000C
:100B5000AD2D2D30BB000030BC003B08B8004C0868
:100B6000A03E8600023087003808810020004C0833
:100B7000A03EB8003808A4004108A6004008A5001F
:100B80003F088931FD21843120002508B100240867
:100B9000B00008002D302000E6009830E70021006A
:100BA00024082000E900210023082000E8009731F4
:100BB0000E2785312100B301B401A41FE02DE12DE2
:100BC000F42D0130B3000030B4002D30A800260809
:100BD0002507A90029088600870128088100A309A4
:100BE000A409A30A0319A40AE830F0000330F100B5
:100BF0002408F3002308F2008B3169238531710842
:100C00002100AE007008AD002E08F1002D08F000A4
:100C10001830F200FC30F3008831072085312100C4
:100C200023087007A3002408713DA4006430F0007D
:100C30000030F1002408F3002308F2008B3169230F
:100C4000853171082100B0007008AF003008F10054
:100C50002F08F0009C30F200FF30F30088310720AD
:100C60008531210023087007A3002408713DA400EA
:100C70000A30F0000030F1002408F3002308F200ED
:100C80008B316923853171082100B2007008B100F1
:100C90003208F1003108F000F630F200FF30F300C6
:100CA000883107208531210023087007AB00240814
:100CB000713DAC0018302000E6009830E700973115
:100CC0000E27853100302000E6009830E700210033
:100CD0002E082000E90021002D082000E800210056
:100CE00030082000EB0021002F082000EA0021003E
:100CF00032082000ED00210031082000EC00210026
:100D00002C082000EF0021002B082000EE00973176
:100D10000E27853121002D08303EA8002608250722
:100D2000A90033082907AA002A0886008701280895
:100D300081002F08303EA80026082507A9003308A7
:100D40002907AA002A0A860087012808810031089D
:100D5000303EA80026082507A90033082907AA0065
:100D60002A08023E86008701280881002B08303EB1
:100D7000A80026082507A90033082907AA002A0881
:100D8000033E86008701280881002D082E04031DDC
:100D9000CA2ECB2EFF2E2030A80026082507A9003A
:100DA00033082907AA002A0886008701280881003D
:100DB0002F083004031DDD2EDE2EFF2E2030A8006C
:100DC00026082507A90033082907AA002A0A860051
:100DD00087012808810031083204031DF02EF12E0E
:100DE000FF2E2030A80026082507A9003308290770
:100DF000AA002A08023E8600870128088100080010
:100E0000F2012830860000308700473FF000F01FD5
:100E10000A2F0B2F2C2F2000A809A909AA09AB091A
:100E2000AC09AD09AE09AF09A80A031D2A2FA90A0A
:100E3000031D2A2FAA0A031D2A2FAB0A031D2A2FDE
:100E4000AC0A031D2A2FAD0A031D2A2FAE0A031D6B
:100E50002A2FAF0AF201F20A203086000030870004
:100E6000473FF000F01F352F362F552F2000A009E7
:100E7000A109A209A309A409A509A609A709A00A0D
:100E8000031D552FA10A031D552FA20A031D552F1F
:100E9000A30A031D552FA40A031D552FA50A031DE0
:100EA000552FA60A031D552FA70A2000200821044C
:100EB0002204230424042504260427040319612F93
:100EC000622FB52FF101F10A712FA035A10DA20DEE
:100ED000A30DA40DA50DA60DA70D0130F0007008FF
:100EE000F107A71F742F752F652F27082F02031DE9
:100EF000932F26082E02031D932F25082D02031D74
:100F0000932F24082C02031D932F23082B02031D6B
:100F1000932F22082A02031D932F21082902031D63
:100F2000932F20082802031C962F972FA72F200805
:100F3000A8022108A93B2208AA3B2308AB3B2408AE
:100F4000AC3B2508AD3B2608AE3B2708AF3BA73698
:100F5000A60CA50CA40CA30CA20CA10CA00C013097
:100F6000F102031DB42FB52F752F72080319B92F85
:100F7000BA2FD82FA809A909AA09AB09AC09AD094C
:100F8000AE09AF09A80A031DD82FA90A031DD82F3F
:100F9000AA0A031DD82FAB0A031DD82FAC0A031DC4
:100FA000D82FAD0A031DD82FAE0A031DD82FAF0AC4
:100FB00020002808A0002908A1002A08A2002B0868
:100FC000A3002C08A4002D08A5002E08A6002F08B9
:100FD000A70008007108F3007008F200F336F20C65
:100FE000F336F20C72082C009B0070080339F200F3
:100FF0000530F235FF3E031DF92F72359A000800C7
:10100200FE0012001E00FE0B02280034F401F5015E
:10101200701C0C280D2811287208F4077308F53D7E
:101022000130F235F30D890B12280130F136F00C44
:10103200890B172870087104031D2028212809280C
:101042007508F1007408F00008008C313C248831E6
:1010520001308A31562288310B30FB006230890B15
:101062003028FB0B30280032FC01FD017C08423E97
:1010720086000130870001088A31B12288310130AF
:10108200FC070030FD3D7D08803AFB0080307B028A
:10109200031D4D2810307C02031C5028512837288C
:1010A20008002000E3005F08E5005E08E40021007C
:1010B200CF01D00170286430E1006108CE006008E1
:1010C200E2006208CF0063088E31242688312000B6
:1010D2004E082100CF0720004F082100D03D2000FC
:1010E20064088400650885001200031D79287A28A7
:1010F2005C28210050082000DF0021004F0820005A
:10110200DE000800203420344734723465346534FC
:101112006E34203442347534743474346F346E3423
:1011220020342034003420344F346E34653420347B
:101132004D346F346D3465346E3474342E342E3441
:101142002E342034203400342034203420345734D8
:10115200613472346D3469346E346734203420342F
:101162005534703420342034003420342034543444
:1011720065346D34703420342034433420342034C8
:1011820020342034203420342034003420342034DD
:1011920045346E34673469346E3465346534723480
:1011A20069346E34673420342034203400342034DF
:1011B2002034203420346A346F3468346E3473340B
:1011C2007A347934203420342034203420340034EA
:1011D20072080319ED28EE28F3287208031DF2287D
:1011E200F328F828700880310320883127297208F3
:1011F200033E860087011600010403190129022912
:101202001F297208033E86008701403FF300413FD9
:10121200F400720A86008701403FF500413FF60064
:101222007608803AF7007408803A7702031D1B297A
:101232007308750203181E291F292729720A8600BE
:1012420087010130810741310318810A08002034E7
:10125200203450346F347434313420342034203408
:1012620050346F3474343234203420342034003417
:101272002034203420342034203468346F347734DE
:10128200643479342034203420342034203420341F
:101292000034203450346F34773465347234693416
:1012A2006E3467342034553470342E342E342E3458
:1012B20020340034203420342034203420342034AC
:1012C200203420342034203420342034203420347C
:1012D20020342034003422008C018D018E013730FD
:1012E20021008C0010308D003C308E000C30230029
:1012F2008E008D0117308C00F03024008D003F30BD
:101302008C00FC308E002100951325008C018D018C
:101312008E0100308B1B0130F0008B1355303C00E6
:101322008F00AA308F000F100E303D00A000053054
:101332003C0098000C30A10010303D009E0011309E
:101342009D000F30A1000E303C00A00011309B0028
:1013520055308F00AA308F000F14700C031C8B13B2
:1013620003188B170800FF3020003A05C4003F30F5
:101372003B05C500C51ABE29BF29C4294508C300BB
:101382004408C200CA294408003EC200C030453D9C
:10139200C3004030A3008030A2000030A100003022
:1013A200A0004208F0004308F100890D893B890939
:1013B200F200F30001308D31782589317308200065
:1013C200A7007208A6007108A5007008A400823167
:1013D200A622893120002308C1002208C00021086A
:1013E200BF002008BE004108BD004008BC003F0805
:1013F200BB003E08BA0008002000AB002100551CCB
:10140200032A042A0D2A20002B08FC007C08F8007D
:1014120024089731D72789312000A61B112A122AC6
:10142200172A2608AA002508A900192AA901AA0133
:10143200A701A8012D2A2030F0000030F100200081
:101442002B08FC007C08F2008831E9208931013048
:101452002000A7070030A83D2808803AFC002A088F
:10146200803A7C02031D372A29082702031C3A2AE4
:101472003B2A1C2A210055183F2A402A492A2000CB
:101482002B08FC007C08F80024089731D727893103
:101492002000240897316A27893120002908700723
:1014A200A4002A08713DA5000800F50022008D1352
:1014B200F8309631EF268A31F801F601F701750806
:1014C2000139F2007208F4007536F2007208F50074
:1014D2007835F2007208F8007403031D712A722A2B
:1014E200772A78080138F2007208F800033076068D
:1014F2007704031D7D2A7E2A8E2A7808F2000330A3
:10150200F235FF3E031D812A7235F3007308F8009D
:1015120078089631EF268A31F8010130F60700305B
:10152200F73D7708803AF20080307202031D9B2A51
:1015320008307602031C9E2A9F2A602A7808F2004D
:101542000330F235FF3E031DA22A7235F300730801
:10155200F80078089631EF268A3122008D170800AC
:10156200F50022008D13FA309631EF268A31F80108
:10157200F601F70175080139F2007208F4007536B8
:10158200F2007208F5007835F2007208F800740370
:10159200031DCC2ACD2AD22A78080138F20072081B
:1015A200F800033076067704031DD82AD92AE92ADF
:1015B2007808F2000330F235FF3E031DDC2A723553
:1015C200F3007308F80078089631EF268A31F801A3
:1015D2000130F6070030F73D7708803AF20080309C
:1015E2007202031DF62A08307602031CF92AFA2A2F
:1015F200BB2A7808F2000330F235FF3E031DFD2AB4
:101602007235F3007308F80078089631EF268A31B4
:1016120022008D17080000302000A4000030A30033
:101622000030A2000030A10022000E132000A5010C
:10163200A60100309631CB268B31F50075082000CB
:10164200A00022000E1320002008F500F601F70189
:10165200F8012108F9002208FA002308FB002408F7
:10166200FC000830F935FA0DFB0DFC0D890B332B0C
:101672007908F5047A08F6047B08F7047C08F80474
:101682007808A4007708A3007608A2007508A100D4
:1016920022000E1301302000A5070030A63D2608C7
:1016A200803AF50080307502031D592B0430250263
:1016B200031C5C2B5D2B1A2B22000E172000240822
:1016C200F4002308F3002208F2002108F1000800C8
:1016D200F601F11F6D2B6E2B752BF009F109F00A43
:1016E2000319F10AF601F60AF31F782B792B822BE4
:1016F200F209F309F20A0319F30A0130F40074083B
:10170200F606F701F801700871040319892B8A2B78
:10171200B92BF501F50A962B0130F035F10D890B45
:101722008E2B0130F4007408F507F11F992B9A2BC8
:101732008D2B0130F735F80D890B9B2B7108730245
:10174200031DA52B70087202031CA82BA92BAE2B1C
:101752007008F2027108F33B77140130F136F00C95
:10176200890BAF2B0130F502031DB82BB92B9A2B35
:1017720076080319BD2BBE2BC32BF709F809F70A0C
:101782000319F80A7808F1007708F000080003103E
:10179200720D730DF4007408FA007A08031DD22B3F
:1017A200D32BDC2B0030F3000030F2000030F100CC
:1017B2000030F0003B2C7008F4007108F50072084C
:1017C200F6007308F7001F30F736F60CF50CF40C30
:1017D200890BE52B7408F8007808F900F217FF303E
:1017E200F005FF30F105FF30F2050030F3059630C9
:1017F200FA02FA1FFD2BFE2B162C7A08803A973E2E
:101802000318042C052C062CD32B0130F336F20CD2
:10181200F10CF00C890B072C0130F4007408FA0764
:10182200031D142C152C062C2B2C20307A02031CA1
:101832001B2C1C2C262CD32B0130F035F10DF20D74
:10184200F30D890B1E2C0130FA027A08031D2A2C93
:101852002B2C1D2C790803192F2C302C3B2CF00932
:10186200F109F209F309F00A0319F10A0319F20A5C
:101872000319F30A080022008E170330FA00083019
:10188200F9007730890B432CF90B432CFA0B432CCC
:1018920000002A308A3156228C3171308A31562228
:1018A2008C3100308A31B1228C3128308A31562273
:1018B2008C3108308A3156228C312A308A315622B4
:1018C2008C3179308A3156228C31D5308A31562288
:1018D2008C3170308A3156228C3178308A315622DE
:1018E2008C3109308A3156228C3106308A315622A7
:1018F2008C3172308A3156228C3100308A31B122D9
:101902008C312A308A3156228C3179308A315622F2
:101912008C31DA308A3156228C3100308A315622AB
:101922008C31DC308A3156228C3100308A31562299
:101932008C3181308A3156228C317F308A31562265
:101942008C31D9308A3156228C31F1308A3156228B
:101952008C31DB308A3156228C3140308A3156222A
:101962008C3178308A3156228C3128308A31562295
:101972008C3101308A3156228C3180308A315622A4
:101982008C310C308A3156228C310330FA00083007
:10199200F9007730890BCB2CF90BCB2CFA0BCB2C23
:1019A200000008002000A20079080F39FC007C0822
:1019B200A0007908FC000430FC36890BDD2C7C0881
:1019C2000F39FD007D08A1000A3020020318EA2C1D
:1019D200EB2CF82C20083038FC007A352207FD0069
:1019E2007D0A8600013087007C088100062D2008D0
:1019F200FF3E07394038FC007A352207FD007D0A98
:101A02008600013087007C0881000A302102031819
:101A12000B2D0C2D192D21083038FC007A352207A8
:101A2200FD007D088600013087007C088100272D9B
:101A32002108FF3E07394038FC007A352207FD00B5
:101A42007D088600013087007C08810001308A31E0
:101A520056228C310B30FC006230890B2E2DFC0B90
:101A62002E2D00322000A301A4012000230822070A
:101A7200FC007C0886000130870001088A31B1220F
:101A82008C3101302000A3070030A43D2408803AA5
:101A9200FC0080307C02031D502D10302302031CF9
:101AA200532D542D362DA0308A3156228C312000F0
:101AB200A301A40120002308313E860001308700E3
:101AC20001088A31B1228C3101302000A307003095
:101AD200A43D2408803AFC0080307C02031D732D53
:101AE20010302302031C762D772D5B2D0800F800A1
:101AF200780803197D2D7E2D922DF31F812D822DC5
:101B0200922D7009FA007109FB007209FC00730939
:101B1200FD00FA0A0319FB0A0319FC0A0319FD0A5C
:101B22009A2D7308FD007208FC007108FB00700812
:101B3200FA007308720471047004031DA12DA22D12
:101B4200AB2D0030F3000030F2000030F100003025
:101B5200F000232E9630F4007408F900BB2D0130FA
:101B6200F4007408F9070130FD36FC0CFB0CFA0C8A
:101B7200890BB52DFE307D05031DC02DC12DB02D65
:101B8200D52D0130F4007408F9070130FA0700304E
:101B9200FB3D0030FC3D0030FD3D0130FD36FC0CCC
:101BA200FB0CFA0C890BCF2DFF307D05031DDA2DBE
:101BB200DB2DC22DE52D0130F9020130FA35FB0D86
:101BC200FC0DFD0D890BDF2DFC1BE82DE92DEF2D02
:101BD200023079020318EE2DEF2DDC2D7918F22D4B
:101BE200F32DFB2DFF30FA05FF30FB057F30FC059E
:101BF200FF30FD050310F90C7908F400F501F60138
:101C0200F7011830F435F50DF60DF70D890B032E9B
:101C12007408FA047508FB047608FC047708FD04CE
:101C220078080319152E162E1B2EF31F192E1A2EA5
:101C32001B2EFD177D08F3007C08F2007B08F100E3
:101C42007A08F00008002000DD004E0886008701B7
:101C5200403FD000413FD100500884005108850028
:101C62001200253A031D362E372EDB2E4E08860033
:101C720087010130810741310318810A2100D10116
:101C8200D201D501D601FF30D300FF30D4002000AD
:101C92004E0886008701403FD000413FD1005008E6
:101CA2008400510885001200643A0319592E5A2EF5
:101CB2006B2E4E0886008701403FD000413FD10085
:101CC20050088400510885001200693A031D6A2EEB
:101CD2006B2EA62E4E088600870101308107413106
:101CE2000318810A4F0886008701010884008501D4
:101CF20002308107003FD000013FD1005008D500DB
:101D02005108D600890D893B8909D700D800D9002E
:101D1200DA00DB00DC005508B0005608B1005708B5
:101D2200B2005808B3005908B4005A08B5005B085D
:101D3200B6005C08B7005D0884315A248E31200059
:101D42003108CF003008CE00FE2E4E0886008701F3
:101D5200403FD000413FD100500884005108850027
:101D62001200253A031DB62EB72ED02E4E0886003D
:101D720087010130810741310318810A2530F000C3
:101D82000030F1005D08D0005008F2008831E920EF
:101D92008E3101302000CE000030CF00FE2E4E08E2
:101DA200860087010130810741310318810ACE0183
:101DB200CF01FE2E4E0886008701403FD000413FF2
:101DC200D10050088400510885000008D200D301D8
:101DD2005208F0005308F1005D08D4005408F200E4
:101DE2008831E9208E3120004E08860087010130BB
:101DF200810741310318810ACA2E0800F2012030FE
:101E0200860000308700473FF000F01F092F0A2F9D
:101E12002B2F2000A009A109A209A309A409A50941
:101E2200A609A709A00A031D292FA10A031D292F0C
:101E3200A20A031D292FA30A031D292FA40A031D89
:101E4200292FA50A031D292FA60A031D292FA70A38
:101E5200F201F20A2830860000308700473FF00086
:101E6200F01F342F352F582F2000A809A909AA09DD
:101E7200AB09AC09AD09AE09AF09A80A031D542F7D
:101E8200A90A031D542FAA0A031D542FAB0A031DCE
:101E9200542FAC0A031D542FAD0A031D542FAE0A52
:101EA200031D542FAF0A0130F0007008F2067330A0
:101EB2008600003087000830F00000301E00F00B72
:101EC2005F2F200020082104220423042404250477
:101ED2002604270403196E2F6F2FCB2FF101F10A6D
:101EE2007E2FA035A10DA20DA30DA40DA50DA60D4B
:101EF200A70D0130F0007008F107A71F812F822F74
:101F0200722FF335F40DF50DF60DF70DF80DF90DF1
:101F1200FA0D27082F02031DA82F26082E02031DE3
:101F2200A82F25082D02031DA82F24082C02031D0B
:101F3200A82F23082B02031DA82F22082A02031D03
:101F4200A82F21082902031DA82F20082802031CFC
:101F5200AB2FAC2FBD2F2008A8022108A93B2208D5
:101F6200AA3B2308AB3B2408AC3B2508AD3B260823
:101F7200AE3B2708AF3B7314A736A60CA50CA40CE6
:101F8200A30CA20CA10CA00C0130F102031DCA2F5C
:101F9200CB2F822F72080319CF2FD02FEE2FF309E8
:101FA200F409F509F609F709F809F909FA09F30A32
:101FB200031DEE2FF40A031DEE2FF50A031DEE2F6B
:101FC200F60A031DEE2FF70A031DEE2FF80A031D72
:101FD200EE2FF90A031DEE2FFA0A73082000A00063
:101FE2007408A1007508A2007608A3007708A4006F
:0E1FF2007808A5007908A6007A08A700080064
:102D1A0020009C1708002800951708007830210029
:102D2A00990098010800200091109631D526963115
:102D3A0008002400940132309500920108007108BD
:102D4A002100D8007008D700080064008001013112
:102D5A00890BAB2E0034013021009D0060309E00AB
:102D6A009F019B019C01080080302C00990098016A
:102D7A009701CF3025009E05080080302C009C006A
:102D8A009B019A013F3025009E050800F00070085B
:102D9A0024009100141CD22ED32ECF2E1108080025
:102DAA002100570858040319DB2EDC2EE12E58089F
:102DBA008A0057080A009631080020009C019E01EB
:102DCA009D019F01DB309B009A01901096318D2660
:102DDA0096310800F100710824009100141CF62EA7
:102DEA00F72EF32E1108F00070082100DA0008000F
:102DFA0020342034303430343034303420342034E9
:102E0A0020343034303430343034203420342034D8
:102E1A0000346830FD007D082100A2002000670808
:102E2A00DF006608DE00A230FD007D08E000003009
:102E3A0088315220973108007108F3007008F200B7
:102E4A00F336F20CF336F20C72082C009800700874
:102E5A000339F2000530F235FF3E031D302F72357B
:102E6A0097000800793028009500033097009601F2
:102E7A0098011730940093012000911021009114B9
:102E8A000230F0000030F1009631A42697319631D5
:102E9A009026973108007408803AF5008030750250
:102EAA00031D592F0130730203185C2F5D2F692F00
:102EBA007309F5007409F600F50A0319F60A75088C
:102ECA00F3007608F400692F0800F4007408F20091
:102EDA007208F300742F0130F2007208F4077408C4
:102EEA008600023087000108031D7C2F7D2F702F7A
:102EFA0073087402F000F101F01BF1030800F300FB
:102F0A007308F200F20DF20D21001D0872068339D2
:102F1A0072069D001D140630890B912F0032210084
:102F2A009D149D18992F9A2F962F1C08F1001B08A3
:102F3A00F000080089316C21973196319326973138
:102F4A0096319E2697318831262097319631B026C0
:102F5A0097319631C2269731973137279731963173
:102F6A00B92697319631E22697310800760377041D
:102F7A00031DC02FC12FC82F7508F1007408F00077
:102F8A00973121279731023076067704031DCE2F19
:102F9A00CF2FD62F7508F1007408F0008731EA2781
:102FAA00973108002000A300A101A201EF2F2008F9
:102FBA00F900FA017908F0007A08F1007808FB00B4
:102FCA007B08F2008831E920973101302000A107FF
:102FDA000030A23D21082307F90079088600023053
:102FEA0087000108FA007A08A0002008031DFE2FB6
:102FFA00FF2FDC2F08002034203425346434203499
:10300A0020342034253464342034203420342534C8
:10301A006434203420342034253464342034203479
:10302A0020340A3400346434693467343134203447
:10303A00643469346734323420346434693467342C
:10304A003334203464346934673434340A34003411
:10305A006E3475346D343D342034253464340A3486
:02306A00003430
:020000040001F9
:06000E00FC3FFF1E9F3FB6
:00000001FF
