:020000040000FA
:1000000080311928080008007E1480310B1F092850
:100010000A2817282100911C0E280F2817282000D5
:10002000911C1328142817289531FC2580317E1047
:10003000090080311B285E30840096308500D9305D
:100040008600003087001130963114268031F83058
:1000500084008830850020308600013087004430DD
:100060009631142680314E30840088308500A030CF
:100070008600013087003330963114268031663097
:1000800084009730850020308600023087002230BF
:10009000963114268031C13084000030850018303C
:1000A00096310E268031D330840001308500103027
:1000B00096310E2680314230840002308500203097
:1000C00096310E2680317E1020008231BE2A20001B
:1000D00023088039A8002808AD002335A800280887
:1000E000B300A21F74287528762833143308031927
:1000F0007A287B288A28330A031D7F2880288828AD
:100100000030A3000030A2000030A1000030A000A9
:10011000A21792280030A3000030A2000030A100F6
:100120000030A00027088039A8002808AD06273530
:10013000A8002808B200A61F9E289F28A0283214D5
:1001400032080319A428A528B428320A031DA928B7
:10015000AA28B2280030A7000030A6000030A50071
:100160000030A400A617BC280030A7000030A6006D
:100170000030A5000030A40032080319C028C128AF
:10018000C6283308031DC528C628CF280030A30081
:100190000030A2000030A1000030A000BD2A2008DD
:1001A000A8002808F00026089731882780317108B8
:1001B0002000B9007008B8003808A800A901AA01F9
:1001C000AB012B08B1002A08B0002908AF002808AD
:1001D000AE003908A800A901AA01AB012B08B7009D
:1001E0002A08B6002908B5002808B4002108A8008C
:1001F0002808F000250897318827803171082000F1
:10020000B9007008B8003808A800A901AA01AB011C
:100210002808AE072908AF3D2A08B03D2B08B13D9C
:100220003908A800A901AA01AB012808B4072908C8
:10023000B53D2A08B63D2B08B73D2208A80028087E
:10024000F000240897318827803171082000B90018
:100250007008B8003808A800A901AA01AB01280855
:10026000AE072908AF3D2A08B03D2B08B13D39083B
:10027000A800A901AA01AB012808B4072908B53DC7
:100280002A08B63D2B08B73D0830AE35AF0DB00D8E
:10029000B10D890B45292108A8002808F000240881
:1002A00097318827803171082000B9007008B800A4
:1002B0003808AE073908AF3D0030B03DB13D2008E9
:1002C000A8002808F0002508973188278031710898
:1002D0002000B9007008B8003808AE073908AF3DF3
:1002E0000030B03DB13D0830AE35AF0DB00DB10DB1
:1002F000890B74292008A8002808F00024089731E9
:100300008827803171082000B9007008B8003808CB
:10031000AE073908AF3D0030B03DB13D2108A8001F
:100320002808F000260897318827803171082000BE
:10033000B9007008B8003808B4073908B53D003076
:10034000B63DB73D2208A8002808F00025089731DF
:100350008827803171082000B9007008B80038087B
:10036000B4073908B53D0030B63DB73D2208A800B6
:100370002808F0002608973188278031710820006E
:10038000B9007008B8003808A8003908A900AA0107
:10039000AB010830A835A90DAA0DAB0D890BCA29F0
:1003A0002808B4072908B53D2A08B63D2B08B73DF3
:1003B0002E08A8002F08A9003008AA003108AB00B9
:1003C0001830AB36AA0CA90CA80C890BE129280817
:1003D000B4072908B53D2A08B63D2B08B73D0830BB
:1003E000AE35AF0DB00DB10D890BF02933083207D2
:1003F000A800A901A90D2808823EB800FF30293DB8
:10040000B900192A0130B435B50DB60DB70D890BF9
:10041000032AB11F0C2A0D2A0E2A34140130AE35DE
:10042000AF0DB00DB10D890B0F2AFF30B807FF30AB
:10043000B93DB61F1C2A1D2A022AB201B11F212A6A
:10044000222A3E2AFF302E05A800FF302F05A900E2
:10045000FF303005AA007F303105AB002B082A049D
:10046000290428040319352A362A392AB201B20A86
:100470003E2A341C3C2A3D2A3E2A362A32080319D9
:10048000422A432A6B2A0130B4070030B53D0030C0
:10049000B63D0030B73D371C4E2A4F2A6B2A340830
:1004A000A8003508A9003608AA003708AB000130BB
:1004B000AC00AB37AA0CA90CA80CAC0B592A2B0822
:1004C000B7002A08B6002908B5002808B400013092
:1004D000B8070030B93D3908803AA80080302802BA
:1004E000031D742AFF303802031C772A782A822AD7
:1004F0007F302000B7008030B6000030B5000030FB
:10050000B400B12A20003908803AA80080302802BF
:10051000031D8C2A0130380203188F2A902A9B2A47
:1005200000302000B7000030B6000030B5000030C9
:10053000B400AD01B12A20003808A8002808B30093
:10054000FF30B405FF30B5057F30B6050030B70584
:10055000331CAB2AAC2AAD2AB6173336A8002808BC
:10056000B7002D08A8002808B7043708A3003608EC
:10057000A2003508A1003408A000080002302100C4
:10058000B6000430B500BA30890BC42AB50BC42AB2
:10059000B60BC42A000097312B2782310B30210083
:1005A000B6002630B5005D30890BD42AB50BD42AAD
:1005B000B60BD42A003201308A31852282310B30C9
:1005C0002100B5006230890BE32AB50BE32A000055
:1005D0002100BF01C00121003F08313E86000130EB
:1005E000870001088A31E022823101302100BF07F3
:1005F0000030C03D4008803AB50080303502031D10
:10060000032B10303F02031C062B072BEB2A023072
:1006100097311027823171082100BC007008BB009F
:100620003C08B6003B08B5000630B636B50C890B61
:10063000152B3508BB003608BC0003309731102756
:10064000823171082100BE007008BD003E08B6006E
:100650003D08B5000630B636B50C890B2B2B350896
:10066000BD003608BE0000303C022D3003193B02AD
:1006700003183B2B3C2B3E2BBB01BC0100303E0240
:100680002D3003193D020318462B472B492BBD0182
:10069000BE013C08A4003B08A300D930B5003508D2
:1006A000A5000230A6000030A70086314D26823119
:1006B00021003E08A4003D08A300D930B50035084C
:1006C000A5000930A6000030A70086314D268231F2
:1006D00001308A31852282310B302100B500623031
:1006E000890B702BB50B702B00002100BF01C001DE
:1006F00021003F08313E86000130870001088A3121
:10070000E022823101302100BF070030C03D4008A7
:10071000803AB50080303502031D902B10303F0227
:10072000031C932B942B782BA0308A3185228231A5
:100730002100BF01C00121003F08D93E860087018A
:1007400001088A31E022823101302100BF070030E8
:10075000C03D4008803AB50080303502031DB22B01
:1007600010303F02031CB52BB62B9B2B21003C08FD
:10077000F5003B08F4000130F6000030F700883146
:100780000120823121003E08F5003D08F4000230CE
:10079000F6000030F7008831012082312930210035
:1007A000B6009630B5007F30890BD42BB50BD42B17
:1007B000B60BD42B01308A31852282310B302100D7
:1007C000B5006230890BE22BB50BE22B0000210053
:1007D000BF01C00121003F08203E86000130870094
:1007E00001088A31E022823101302100BF07003048
:1007F000C03D4008803AB50080303502031D022C10
:1008000010303F02031C052C062CEA2B8931D8211D
:10081000823120003D082100C80020003C08210052
:10082000C70020003B082100C60020003A08210034
:10083000C50089318421823120003D082100C40097
:1008400020003C082100C30020003B082100C2001A
:1008500020003A082100C100963182268231210011
:10086000B5003508D70057080319372C382C482C09
:10087000570888318120823129302100B600963016
:10088000B5007F30890B422CB50B422CB60B422CA5
:1008900001308A31852282310B302100B50062306F
:1008A000890B502CB50B502C00002100BF01C0015A
:1008B00021003F08203E86000130870001088A3170
:1008C000E022823101302100BF070030C03D4008E6
:1008D000803AB50080303502031D702C10303F0285
:1008E000031C732C742C582C21004808F300470873
:1008F000F2004608F1004508F00087318327823175
:1009000071082100A4007008A300D930B500350893
:10091000A5000230A6000030A70086314D268231A6
:1009200021004408F3004308F2004208F1004108A6
:10093000F00087318327823171082100A4007008FC
:10094000A300D930B5003508A5000930A600003055
:10095000A70086314D268231A0308A31852282312E
:100960002100BF01C00121003F08D93E8600870158
:1009700001088A31E022823101302100BF070030B6
:10098000C03D4008803AB50080303502031DCA2CB6
:1009900010303F02031CCD2CCE2CB32C293021006B
:1009A000B6009630B5007F30890BD42CB50BD42C13
:1009B000B60BD42C072B803119282000BF0030083B
:1009C000C4003108C5003208C6003308C700340827
:1009D000C8003508C9003608CA003708CB004430C3
:1009E000860000308700473FB800B81BF82CFA2C6F
:1009F0000130FB2C00302000B900BA013908C200D8
:100A00003A08C300420843040319072D082D262D78
:100A1000C409C509C609C709C809C909CA09CB0952
:100A2000C40A031D262DC50A031D262DC60A031D53
:100A3000262DC70A031D262DC80A031D262DC90A07
:100A4000031D262DCA0A031D262DCB0A2100D21B09
:100A50002A2D2B2D2F2DFD30D305FF30D405520824
:100A6000803A2000B80080303802031D3A2D013052
:100A70002100510203183D2D3E2D442D0130200050
:100A8000BD000030BE004C2D210052082000BE00E9
:100A9000210051082000BD00210050082000C100A5
:100AA00021004F082000C00042084304031D592DB7
:100AB0005A2D5F2D2100531D5E2D5F2D642DFF30BB
:100AC0002000C007FF30C13D1F302000CC000030A7
:100AD000CD002400E101D52DFF302000CC07FF30F0
:100AE000CD3D0A30A000A101A201A301A401A501EE
:100AF000A601A7014408A8004508A9004608AA00C5
:100B00004708AB004808AC004908AD004A08AE00F1
:100B10004B08AF008E311526843120002108F400E7
:100B20002008F3009631DC2684317308303E200023
:100B3000B8004C08423E8600023087003808810029
:100B4000FF30BD07FF30BE3DFF30C007FF30C13D65
:100B50000A30A000A101A201A301A401A501A601E0
:100B6000A7014408A8004508A9004608AA004708AC
:100B7000AB004808AC004908AD004A08AE004B087D
:100B8000AF008E31FF26843120002008C4002108E8
:100B9000C5002208C6002308C7002408C80025088D
:100BA000C9002608CA002708CB0020004D08803A5B
:100BB000B80080303802031DDF2D01304C02031CC9
:100BC000E22DE32D102E200044084504460447047E
:100BD000480449044A044B04031DEF2DF02D6C2DED
:100BE0003E08803AB80080303802031DF92D0130EC
:100BF0003D020318FC2DFD2D6C2D20004108803A8C
:100C0000B80080303802031D072E01304002031C5B
:100C10000A2E0B2E102E2100D3180F2E102E6C2D05
:100C2000200042084304031D162E172E1C2E2100FF
:100C3000531D1B2E1C2E392EFF302000CC07FF30F9
:100C4000CD3D42084304031D262E272E2C2E2B308B
:100C5000BB000030BC00302E2D30BB000030BC008B
:100C60003B08B8004C08423E860002308700380836
:100C7000810020004C08423EB8003808A40041081A
:100C8000A6004008A5003F088A312C2284312000AC
:100C90002508B1002408B00008002D302000E6002F
:100CA0009830E700210024082000E90021002308F3
:100CB0002000E80096316F2686312100B301B4018F
:100CC000A41F632E642E772E0130B3000030B400D1
:100CD0002D30A80026082507A900290886008701CD
:100CE00028088100A309A409A30A0319A40AE8306B
:100CF000F0000330F1002408F3002308F2008B31E8
:100D00009823863171082100AE007008AD002E08CE
:100D1000F1002D08F0001830F200FC30F30097319C
:100D200047278631210023087007A3002408713D5E
:100D3000A4006430F0000030F1002408F300230820
:100D4000F2008B319823863171082100B0007008C1
:100D5000AF003008F1002F08F0009C30F200FF30A7
:100D6000F300973147278631210023087007A3003D
:100D70002408713DA4000A30F0000030F10024087E
:100D8000F3002308F2008B3198238631710821008B
:100D9000B2007008B1003208F1003108F000F630FE
:100DA000F200FF30F30097314727863121002308F6
:100DB0007007AB002408713DAC0018302000E6003D
:100DC0009830E70096316F26863100302000E6002B
:100DD0009830E70021002E082000E90021002D08AE
:100DE0002000E800210030082000EB0021002F083F
:100DF0002000EA00210032082000ED002100310827
:100E00002000EC0021002C082000EF0021002B081E
:100E10002000EE0096316F26863121002D08303EED
:100E2000A80026082507A90033082907AA002A08D0
:100E300086008701280881002F08303EA800260878
:100E40002507A90033082907AA002A0A8600870176
:100E5000280881003108303EA80026082507A9008F
:100E600033082907AA002A08023E860087012808BD
:100E700081002B08303EA80026082507A90033086A
:100E80002907AA002A08033E860087012808810056
:100E90002D082E04031D4D2F4E2F822F2030A80029
:100EA00026082507A90033082907AA002A08860072
:100EB0008701280881002F083004031D602F612F4F
:100EC000822F2030A80026082507A900330829070B
:100ED000AA002A0A86008701280881003108320406
:100EE000031D732F742F822F2030A800260825079A
:100EF000A90033082907AA002A08023E86008701B4
:100F00002808810008000310720D730DF4007408A6
:100F1000FA007A08031D8D2F8E2F972F0030F300D3
:100F20000030F2000030F1000030F000F62F7008C1
:100F3000F4007108F5007208F6007308F7001F301E
:100F4000F736F60CF50CF40C890BA02F7408F8009A
:100F50007808F900F217FF30F005FF30F105FF3097
:100F6000F2050030F3059630FA02FA1FB82FB92FB8
:100F7000D12F7A08803A973E0318BF2FC02FC12F78
:100F80008E2F0130F336F20CF10CF00C890BC22FCE
:100F90000130F4007408FA07031DCF2FD02FC12FA2
:100FA000E62F20307A02031CD62FD72FE12F8E2F69
:100FB0000130F035F10DF20DF30D890BD92F013011
:100FC000FA027A08031DE52FE62FD82F79080319B6
:100FD000EA2FEB2FF62FF009F109F209F309F00AD5
:100FE0000319F10A0319F20A0319F30A0800803001
:100FF0002C009C009B019A013F3025009E050800B3
:1010020076037704031D062807280E287508F100C9
:101012007408F000963197268831023076067704FC
:10102200031D142815281C287508F1007408F00007
:101032009631AD26883108002000E3005F08E50004
:101042005E08E4002100CD01CE013B286430E100BE
:101052006108CE006008E2006208CF0063088D31AB
:101062003A25883120004E082100CD0720004F0884
:101072002100CE3D2000640884006508850012002E
:10108200031D44284528272821004E082000DF00A0
:1010920021004D082000DE0008002034543443347F
:1010A20020344634613475346C34743420343D3425
:1010B20020342034203420342034003420342034AE
:1010C20045346E34673469346E3465346534723451
:1010D20069346E34673420342034203400342034B0
:1010E2002034203420346A346F3468346E347334DC
:1010F2007A347934203420342034203420340034BB
:101102002000B100A030860001308700203084002A
:10111200003085001130F90016001A00F90B8D28F5
:1011220001308A3185228831200031083038F900B7
:101132007908AB00B201B30120003208203E8600DC
:10114200870101088A31E022883101302000B2078C
:101152000030B33D3308803AF90080307902031D34
:10116200B42810303202031CB728B8289D28080082
:1011720072080319BD28BE28C3287208031DC2289D
:10118200C328C8287008803103208831F7287208E4
:10119200033E86008701160001040319D128D228D4
:1011A200EF287208033E86008701403FF300413F6B
:1011B200F400720A86008701403FF500413FF600C5
:1011C2007608803AF7007408803A7702031DEB280C
:1011D200730875020318EE28EF28F728720A8600B2
:1011E20087010130810741310318810A0800203448
:1011F2002034543465346D34703420342034433414
:10120200203420342034203420342034203400345C
:101212002034203450346F34743431342034203448
:10122200203450346F347434323420342034203437
:1012320000342034203420342034203468346F3495
:101242007734643479342034203420342034203408
:1012520020340034203450346F347734653472349F
:1012620069346E3467342034553470342E342E345D
:101272002E342034003422008C018D018E0137304F
:1012820021008C0010308D003C308E000C30230089
:101292008E008D0117308C00F03024008D003F301D
:1012A2008C00FC308E002100951325008C018D01ED
:1012B2008E0100308B1B0130F0008B1355303C0047
:1012C2008F00AA308F000F100E303D00A0000530B5
:1012D2003C0098000C30A10010303D009E001130FF
:1012E2009D000F30A1000E303C00A00011309B0089
:1012F20055308F00AA308F000F14700C031C8B1313
:1013020003188B1708008B313B23893174082000A6
:10131200C5007308C4007208C3007108C200420805
:10132200BE004308BF004408C0004508C1000430A5
:10133200C136C00CBF0CBE0C890B9929FF303E058B
:10134200C6000F303F05C700C71DA829A929AD292E
:101352000030C604F030C7043D30A3008030A20044
:101362000030A1000030A0004608F0004708F1005C
:10137200890D893B8909F200F30001308C318E24FA
:10138200893173082000A7007208A6007108A50021
:101392007008A40080316720893120002308BD0035
:1013A2002208BC002108BB002008BA0008008B31CB
:1013B2003B23893174082000C5007308C4007208F9
:1013C200C3007108C2004208BE004308BF004408BF
:1013D200C0004508C1001230C136C00CBF0CBE0CA3
:1013E200890BED29FF303E05C6003F303F05C7009F
:1013F200C71EFC29FD29012A0030C604C030C704DB
:101402003E30A3008030A2000030A1000030A000D6
:101412004608F0004708F100890D893B8909F2006E
:10142200F30001308C318E24893173082000A7002B
:101432007208A6007108A5007008A4008031672018
:10144200893120002308BD002208BC002108BB000E
:101452002008BA0008002000AB002100531C322AE9
:10146200332A3C2A20002B08FC007C08F8002408C0
:101472009731AB278A312000A61B402A412A462AEF
:101482002608AA002508A900482AA901AA01A7013D
:10149200A8015C2A2030F0000030F10020002B0867
:1014A200FC007C08F2008831B9208A31013020002A
:1014B200A7070030A83D2808803AFC002A08803A95
:1014C2007C02031D662A29082702031C692A6A2A4C
:1014D2004B2A210053186E2A6F2A782A20002B08E3
:1014E200FC007C08F80024089731AB278A312000E1
:1014F20024089631F6268A31200029087007A400B4
:101502002A08713DA5000800F50022008D13F8306D
:10151200963150268A31F801F601F7017508013932
:10152200F2007208F4007536F2007208F5007835A0
:10153200F2007208F8007403031DA02AA12AA62A49
:1015420078080138F2007208F80003307606770452
:10155200031DAC2AAD2ABD2A7808F2000330F23509
:10156200FF3E031DB02A7235F3007308F8007808B5
:10157200963150268A31F8010130F6070030F73DE6
:101582007708803AF20080307202031DCA2A0830BE
:101592007602031CCD2ACE2A8F2A7808F200033065
:1015A200F235FF3E031DD12A7235F3007308F800AD
:1015B2007808963150268A3122008D170800F500EE
:1015C20022008D13FA30963150268A31F801F60145
:1015D200F70175080139F2007208F4007536F2005D
:1015E2007208F5007835F2007208F8007403031DE2
:1015F200FB2AFC2A012B78080138F2007208F80055
:10160200033076067704031D072B082B182B780866
:10161200F2000330F235FF3E031D0B2B7235F3004F
:101622007308F8007808963150268A31F8010130A3
:10163200F6070030F73D7708803AF20080307202F8
:10164200031D252B08307602031C282B292BEA2A9E
:101652007808F2000330F235FF3E031D2C2B723561
:10166200F3007308F8007808963150268A31220078
:101672008D17080000302000A4000030A3000030C5
:10168200A2000030A10022000E132000A501A60135
:10169200003096312C268B31F50075082000A00011
:1016A20022000E1320002008F500F601F701F801D0
:1016B2002108F9002208FA002308FB002408FC0094
:1016C2000830F935FA0DFB0DFC0D890B622B7908F8
:1016D200F5047A08F6047B08F7047C08F804780815
:1016E200A4007708A3007608A2007508A1002200D2
:1016F2000E1301302000A5070030A63D2608803ACF
:10170200F50080307502031D882B04302502031C6E
:101712008B2B8C2B492B22000E1720002408F4005F
:101722002308F3002208F2002108F1000800F60164
:10173200F11F9C2B9D2BA42BF009F109F00A031930
:10174200F10AF601F60AF31FA72BA82BB12BF20917
:10175200F309F20A0319F30A0130F4007408F606D9
:10176200F701F801700871040319B82BB92BE82BA3
:10177200F501F50AC52B0130F035F10D890BBD2BB2
:101782000130F4007408F507F11FC82BC92BBC2BDC
:101792000130F735F80D890BCA2B71087302031D4E
:1017A200D42B70087202031CD72BD82BDD2B7008A8
:1017B200F2027108F33B77140130F136F00C890B19
:1017C200DE2B0130F502031DE72BE82BC92B76082F
:1017D2000319EC2BED2BF22BF709F809F70A031981
:1017E200F80A7808F1007708F000080022008E1746
:1017F2000330FA000830F9007730890BFE2BF90B21
:10180200FE2BFA0BFE2B00002A308A3185228B3107
:1018120071308A3185228B3100308A31E0228B315E
:1018220028308A3185228B3108308A3185228B31EA
:101832002A308A3185228B3179308A3185228B3167
:10184200D5308A3185228B3170308A3185228B31B5
:1018520078308A3185228B3109308A3185228B3169
:1018620006308A3185228B3172308A3185228B3162
:1018720000308A31E0228B312A308A3185228B3145
:1018820079308A3185228B31DA308A3185228B3167
:1018920000308A3185228B31DC308A3185228B31CE
:1018A20000308A3185228B3181308A3185228B3119
:1018B2007F308A3185228B31D9308A3185228B3132
:1018C200F1308A3185228B31DB308A3185228B31AE
:1018D20040308A3185228B3178308A3185228B31B2
:1018E20028308A3185228B3101308A3185228B3131
:1018F20080308A3185228B310C308A3185228B31BE
:101902000330FA000830F9007730890B862CF90B86
:10191200862CFA0B862C00000800F80078080319C0
:10192200932C942CA82CF31F972C982CA82C70097C
:10193200FA007109FB007209FC007309FD00FA0A42
:101942000319FB0A0319FC0A0319FD0AB02C7308D8
:10195200FD007208FC007108FB007008FA007308B1
:10196200720471047004031DB72CB82CC12C003012
:10197200F3000030F2000030F1000030F000392DA9
:101982009630F4007408F900D12C0130F400740888
:10199200F9070130FD36FC0CFB0CFA0C890BCB2C41
:1019A200FE307D05031DD62CD72CC62CEB2C013026
:1019B200F4007408F9070130FA070030FB3D0030EB
:1019C200FC3D0030FD3D0130FD36FC0CFB0CFA0CF9
:1019D200890BE52CFF307D05031DF02CF12CD82C52
:1019E200FB2C0130F9020130FA35FB0DFC0DFD0D27
:1019F200890BF52CFC1BFE2CFF2C052D02307902E5
:101A02000318042D052DF22C7918082D092D112DFE
:101A1200FF30FA05FF30FB057F30FC05FF30FD0586
:101A22000310F90C7908F400F501F601F7011830FA
:101A3200F435F50DF60DF70D890B192D7408FA041E
:101A42007508FB047608FC047708FD04780803197E
:101A52002B2D2C2D312DF31F2F2D302D312DFD1738
:101A62007D08F3007C08F2007B08F1007A08F000A0
:101A720008002000DD004E0886008701403FD000AC
:101A8200413FD10050088400510885001200253AD8
:101A9200031D4C2D4D2DF12D4E088600870101307E
:101AA200810741310318810A2100CF01D001D301FE
:101AB200D401FF30D100FF30D20020004E08860052
:101AC2008701403FD000413FD100500884005108B7
:101AD20085001200643A03196F2D702D812D4E0876
:101AE20086008701403FD000413FD100500884006A
:101AF200510885001200693A031D802D812DBC2DED
:101B02004E08860087010130810741310318810A9E
:101B12004F08860087010108840085010230810791
:101B2200003FD000013FD1005008D5005108D60037
:101B3200890D893B8909D700D800D900DA00DB007A
:101B4200DC005508B0005608B1005708B20058082A
:101B5200B3005908B4005A08B5005B08B6005C0827
:101B6200B7005D088431DD248D3120003108CF00BB
:101B72003008CE00142E4E0886008701403FD00068
:101B8200413FD10050088400510885001200253AD7
:101B9200031DCC2DCD2DE62D4E0886008701013088
:101BA200810741310318810A2530F0000030F1002D
:101BB2005D08D0005008F2008831B9208D31013023
:101BC2002000CE000030CF00142E4E088600870180
:101BD2000130810741310318810ACE01CF01142E51
:101BE2004E0886008701403FD000413FD100500897
:101BF2008400510885000008D200D3015208F00089
:101C02005308F1005D08D4005408F2008831B9206D
:101C12008D3120004E088600870101308107413155
:101C22000318810AE02D0800F201283086000030F6
:101C32008700473FF000F01F1F2E202E412E20006C
:101C4200A809A909AA09AB09AC09AD09AE09AF09EE
:101C5200A80A031D3F2EA90A031D3F2EAA0A031D2F
:101C62003F2EAB0A031D3F2EAC0A031D3F2EAD0AC9
:101C7200031D3F2EAE0A031D3F2EAF0AF201F20AE8
:101C82002030860000308700473FF000F01F4A2EC8
:101C92004B2E6A2E2000A009A109A209A309A409BA
:101CA200A509A609A709A00A031D6A2EA10A031DF8
:101CB2006A2EA20A031D6A2EA30A031D6A2EA40A13
:101CC200031D6A2EA50A031D6A2EA60A031D6A2E8B
:101CD200A70A200020082104220423042404250446
:101CE200260427040319762E772ECA2EF101F10A53
:101CF200862EA035A10DA20DA30DA40DA50DA60D36
:101D0200A70D0130F0007008F107A71F892E8A2E57
:101D12007A2E27082F02031DA82E26082E02031D45
:101D2200A82E25082D02031DA82E24082C02031D0F
:101D3200A82E23082B02031DA82E22082A02031D07
:101D4200A82E21082902031DA82E20082802031C00
:101D5200AB2EAC2EBC2E2008A8022108A93B2208DB
:101D6200AA3B2308AB3B2408AC3B2508AD3B260825
:101D7200AE3B2708AF3BA736A60CA50CA40CA30CC0
:101D8200A20CA10CA00C0130F102031DC92ECA2E17
:101D92008A2E72080319CE2ECF2EED2EA809A9097C
:101DA200AA09AB09AC09AD09AE09AF09A80A031D1E
:101DB200ED2EA90A031DED2EAA0A031DED2EAB0A74
:101DC200031DED2EAC0A031DED2EAD0A031DED2EF3
:101DD200AE0A031DED2EAF0A20002808A000290834
:101DE200A1002A08A2002B08A3002C08A4002D0899
:101DF200A5002E08A6002F08A7000800F201203037
:101E0200860000308700473FF000F01F092F0A2F9D
:101E12002B2F2000A009A109A209A309A409A50941
:101E2200A609A709A00A031D292FA10A031D292F0C
:101E3200A20A031D292FA30A031D292FA40A031D89
:101E4200292FA50A031D292FA60A031D292FA70A38
:101E5200F201F20A2830860000308700473FF00086
:101E6200F01F342F352F582F2000A809A909AA09DD
:101E7200AB09AC09AD09AE09AF09A80A031D542F7D
:101E8200A90A031D542FAA0A031D542FAB0A031DCE
:101E9200542FAC0A031D542FAD0A031D542FAE0A52
:101EA200031D542FAF0A0130F0007008F2067330A0
:101EB2008600003087000830F00000301E00F00B72
:101EC2005F2F200020082104220423042404250477
:101ED2002604270403196E2F6F2FCB2FF101F10A6D
:101EE2007E2FA035A10DA20DA30DA40DA50DA60D4B
:101EF200A70D0130F0007008F107A71F812F822F74
:101F0200722FF335F40DF50DF60DF70DF80DF90DF1
:101F1200FA0D27082F02031DA82F26082E02031DE3
:101F2200A82F25082D02031DA82F24082C02031D0B
:101F3200A82F23082B02031DA82F22082A02031D03
:101F4200A82F21082902031DA82F20082802031CFC
:101F5200AB2FAC2FBD2F2008A8022108A93B2208D5
:101F6200AA3B2308AB3B2408AC3B2508AD3B260823
:101F7200AE3B2708AF3B7314A736A60CA50CA40CE6
:101F8200A30CA20CA10CA00C0130F102031DCA2F5C
:101F9200CB2F822F72080319CF2FD02FEE2FF309E8
:101FA200F409F509F609F709F809F909FA09F30A32
:101FB200031DEE2FF40A031DEE2FF50A031DEE2F6B
:101FC200F60A031DEE2FF70A031DEE2FF80A031D72
:101FD200EE2FF90A031DEE2FFA0A73082000A00063
:101FE2007408A1007508A2007608A3007708A4006F
:0E1FF2007808A5007908A6007A08A700080064
:102BE20020009C1708002800951708007830210063
:102BF20099009801080020009110963136269531EF
:102C020008002400940132309500920108007108F6
:102C12002100D6007008D50008006400800101314F
:102C2200890B0F2E0034FE0012001E00FE0B152E23
:102C32000034013021009D0060309E009F019B0105
:102C42009C01080080302C00990098019701CF3038
:102C520025009E050800F000700824009100141C55
:102C6200332E342E302E1108080021005508560448
:102C720003193C2E3D2E422E56088A0055080A00A2
:102C82009631080020009C019E019D019F01DB30CE
:102C92009B009A0190109531F12596310800F100C0
:102CA200710824009100141C572E582E542E11081E
:102CB200F00070082100D80008002034203430349D
:102CC2003034303430342034203420343034303412
:102CD2003034303420342034203400346830FD0065
:102CE2007D082100A20020006708DF006608DE00E0
:102CF200A230FD007D08E000003088311D209631B1
:102D020008008B313B23963174082000AA00730817
:102D1200A9007208A8007108A700291C912E922E02
:102D2200952E27080739962E003008007108F30007
:102D32007008F200F336F20CF336F20C72082C0033
:102D4200980070080339F2000530F235FF3E031D8A
:102D5200A62E7235970008007108F3007008F20081
:102D6200F336F20CF336F20C72082C009B0070085A
:102D72000339F2000530F235FF3E031DBC2E7235D9
:102D82009A000800793028009500033097009601D8
:102D920098011730940093012000911021009114A2
:102DA2000230F0000030F10096310826963195315C
:102DB200F425963108007408803AF50080307502D7
:102DC200031DE52E013073020318E82EE92EF52EBD
:102DD2007309F5007409F600F50A0319F60A750875
:102DE200F3007608F400F52E0800F4007408F200EF
:102DF2007208F300002F0130F2007208F407740821
:102E02008600023087000108031D082F092FFC2EBF
:102E120073087402F000F101F01BF1030800F300E3
:102E22007308F200F20DF20D21001D0872068339BB
:102E320072069D001D140630890B1D2F00322100E1
:102E42009D149D18252F262F222F1C08F1001B08E8
:102E5200F000080089313C2197319531F7259731EF
:102E62009631022697319731D427973196311A2617
:102E720097318731F72797319631C32697319631AB
:102E8200232697319631432697310800F401F50144
:102E9200701C4C2F4D2F512F7208F4077308F53D0B
:102EA2000130F235F30D890B522F0130F136F00C5F
:102EB200890B572F70087104031D602F612F492F52
:102EC2007508F1007408F000080020342034203422
:102ED2002034203420342034203420342034203450
:102EE2002034203420342034203400342034203460
:102EF20020345734613472346D3469346E3467343B
:102F02002034203455347034203420340034F80016
:102F1200F401F5017008F200F3017208F60073087B
:102F2200F700781C952F962F9A2F7608F4077708CA
:102F3200F53D0130F635F70D890B9B2F0310F80C88
:102F42007808031DA52FA62F922F7508F10074088B
:102F5200F00008002000A300A101A201C32F200855
:102F6200F900FA017908F0007A08F1007808FB000C
:102F72007B08F2008831B920973101302000A10787
:102F82000030A23D21082307F900790886000230AB
:102F920087000108FA007A08A0002008031DD22F3A
:102FA200D32FB02F08008B31F723973101308A31AC
:102FB200852297310B30FB006230890BDE2FFB0B31
:102FC200DE2F0032FC01FD017C08533E86000130F9
:102FD200870001088A31E02297310130FC07003076
:102FE200FD3D7D08803AFB0080307B02031DFB2FF4
:102FF20010307C02031CFE2FFF2FE52F0800203427
:10300200203425346434203420342034253464348C
:1030120020342034203425346434203420342034C5
:10302200253464342034203420340A3400346434A7
:103032006934673431342034643469346734323467
:10304200203464346934673433342034643469346A
:10305200673434340A3400346E3475346D343D349C
:0A3062002034253464340A340034AD
:020000040001F9
:06000E00FC3FFF1E9F3FB6
:00000001FF
